{
  "_format": "hh-sol-artifact-1",
  "contractName": "Layer2Registry",
  "sourceName": "contracts/stake/Layer2Registry.sol",
  "abi": [
    {
      "anonymous": false,
      "inputs": [
        {
          "indexed": true,
          "internalType": "bytes32",
          "name": "role",
          "type": "bytes32"
        },
        {
          "indexed": true,
          "internalType": "bytes32",
          "name": "previousAdminRole",
          "type": "bytes32"
        },
        {
          "indexed": true,
          "internalType": "bytes32",
          "name": "newAdminRole",
          "type": "bytes32"
        }
      ],
      "name": "RoleAdminChanged",
      "type": "event"
    },
    {
      "anonymous": false,
      "inputs": [
        {
          "indexed": true,
          "internalType": "bytes32",
          "name": "role",
          "type": "bytes32"
        },
        {
          "indexed": true,
          "internalType": "address",
          "name": "account",
          "type": "address"
        },
        {
          "indexed": true,
          "internalType": "address",
          "name": "sender",
          "type": "address"
        }
      ],
      "name": "RoleGranted",
      "type": "event"
    },
    {
      "anonymous": false,
      "inputs": [
        {
          "indexed": true,
          "internalType": "bytes32",
          "name": "role",
          "type": "bytes32"
        },
        {
          "indexed": true,
          "internalType": "address",
          "name": "account",
          "type": "address"
        },
        {
          "indexed": true,
          "internalType": "address",
          "name": "sender",
          "type": "address"
        }
      ],
      "name": "RoleRevoked",
      "type": "event"
    },
    {
      "inputs": [],
      "name": "DEFAULT_ADMIN_ROLE",
      "outputs": [
        {
          "internalType": "bytes32",
          "name": "",
          "type": "bytes32"
        }
      ],
      "stateMutability": "view",
      "type": "function"
    },
    {
      "inputs": [],
      "name": "MINTER_ROLE",
      "outputs": [
        {
          "internalType": "bytes32",
          "name": "",
          "type": "bytes32"
        }
      ],
      "stateMutability": "view",
      "type": "function"
    },
    {
      "inputs": [],
      "name": "OPERATOR_ROLE",
      "outputs": [
        {
          "internalType": "bytes32",
          "name": "",
          "type": "bytes32"
        }
      ],
      "stateMutability": "view",
      "type": "function"
    },
    {
      "inputs": [
        {
          "internalType": "address",
          "name": "account",
          "type": "address"
        }
      ],
      "name": "addAdmin",
      "outputs": [],
      "stateMutability": "nonpayable",
      "type": "function"
    },
    {
      "inputs": [
        {
          "internalType": "address",
          "name": "account",
          "type": "address"
        }
      ],
      "name": "addMinter",
      "outputs": [],
      "stateMutability": "nonpayable",
      "type": "function"
    },
    {
      "inputs": [
        {
          "internalType": "address",
          "name": "account",
          "type": "address"
        }
      ],
      "name": "addOperator",
      "outputs": [],
      "stateMutability": "nonpayable",
      "type": "function"
    },
    {
      "inputs": [
        {
          "internalType": "address",
          "name": "",
          "type": "address"
        }
      ],
      "name": "aliveImplementation",
      "outputs": [
        {
          "internalType": "bool",
          "name": "",
          "type": "bool"
        }
      ],
      "stateMutability": "view",
      "type": "function"
    },
    {
      "inputs": [
        {
          "internalType": "address",
          "name": "layer2",
          "type": "address"
        },
        {
          "internalType": "address",
          "name": "seigManager",
          "type": "address"
        }
      ],
      "name": "deployCoinage",
      "outputs": [
        {
          "internalType": "bool",
          "name": "",
          "type": "bool"
        }
      ],
      "stateMutability": "nonpayable",
      "type": "function"
    },
    {
      "inputs": [
        {
          "internalType": "string",
          "name": "name",
          "type": "string"
        }
      ],
      "name": "getLayer2ByName",
      "outputs": [
        {
          "internalType": "address",
          "name": "",
          "type": "address"
        }
      ],
      "stateMutability": "view",
      "type": "function"
    },
    {
      "inputs": [
        {
          "internalType": "bytes32",
          "name": "role",
          "type": "bytes32"
        }
      ],
      "name": "getRoleAdmin",
      "outputs": [
        {
          "internalType": "bytes32",
          "name": "",
          "type": "bytes32"
        }
      ],
      "stateMutability": "view",
      "type": "function"
    },
    {
      "inputs": [
        {
          "internalType": "bytes32",
          "name": "role",
          "type": "bytes32"
        },
        {
          "internalType": "address",
          "name": "account",
          "type": "address"
        }
      ],
      "name": "grantRole",
      "outputs": [],
      "stateMutability": "nonpayable",
      "type": "function"
    },
    {
      "inputs": [
        {
          "internalType": "bytes32",
          "name": "role",
          "type": "bytes32"
        },
        {
          "internalType": "address",
          "name": "account",
          "type": "address"
        }
      ],
      "name": "hasRole",
      "outputs": [
        {
          "internalType": "bool",
          "name": "",
          "type": "bool"
        }
      ],
      "stateMutability": "view",
      "type": "function"
    },
    {
      "inputs": [
        {
          "internalType": "address",
          "name": "account",
          "type": "address"
        }
      ],
      "name": "isAdmin",
      "outputs": [
        {
          "internalType": "bool",
          "name": "",
          "type": "bool"
        }
      ],
      "stateMutability": "view",
      "type": "function"
    },
    {
      "inputs": [
        {
          "internalType": "address",
          "name": "account",
          "type": "address"
        }
      ],
      "name": "isMinter",
      "outputs": [
        {
          "internalType": "bool",
          "name": "",
          "type": "bool"
        }
      ],
      "stateMutability": "view",
      "type": "function"
    },
    {
      "inputs": [
        {
          "internalType": "address",
          "name": "account",
          "type": "address"
        }
      ],
      "name": "isOperator",
      "outputs": [
        {
          "internalType": "bool",
          "name": "",
          "type": "bool"
        }
      ],
      "stateMutability": "view",
      "type": "function"
    },
    {
      "inputs": [],
      "name": "isOwner",
      "outputs": [
        {
          "internalType": "bool",
          "name": "",
          "type": "bool"
        }
      ],
      "stateMutability": "view",
      "type": "function"
    },
    {
      "inputs": [
        {
          "internalType": "uint256",
          "name": "index",
          "type": "uint256"
        }
      ],
      "name": "layer2ByIndex",
      "outputs": [
        {
          "internalType": "address",
          "name": "",
          "type": "address"
        }
      ],
      "stateMutability": "view",
      "type": "function"
    },
    {
      "inputs": [
        {
          "internalType": "address",
          "name": "layer2",
          "type": "address"
        }
      ],
      "name": "layer2s",
      "outputs": [
        {
          "internalType": "bool",
          "name": "",
          "type": "bool"
        }
      ],
      "stateMutability": "view",
      "type": "function"
    },
    {
      "inputs": [],
      "name": "numLayer2s",
      "outputs": [
        {
          "internalType": "uint256",
          "name": "",
          "type": "uint256"
        }
      ],
      "stateMutability": "view",
      "type": "function"
    },
    {
      "inputs": [],
      "name": "pauseProxy",
      "outputs": [
        {
          "internalType": "bool",
          "name": "",
          "type": "bool"
        }
      ],
      "stateMutability": "view",
      "type": "function"
    },
    {
      "inputs": [
        {
          "internalType": "uint256",
          "name": "",
          "type": "uint256"
        }
      ],
      "name": "proxyImplementation",
      "outputs": [
        {
          "internalType": "address",
          "name": "",
          "type": "address"
        }
      ],
      "stateMutability": "view",
      "type": "function"
    },
    {
      "inputs": [
        {
          "internalType": "address",
          "name": "layer2",
          "type": "address"
        },
        {
          "internalType": "string",
          "name": "name",
          "type": "string"
        }
      ],
      "name": "register",
      "outputs": [
        {
          "internalType": "bool",
          "name": "",
          "type": "bool"
        }
      ],
      "stateMutability": "nonpayable",
      "type": "function"
    },
    {
      "inputs": [
        {
          "internalType": "address",
          "name": "layer2",
          "type": "address"
        },
        {
          "internalType": "address",
          "name": "seigManager",
          "type": "address"
        },
        {
          "internalType": "string",
          "name": "name",
          "type": "string"
        }
      ],
      "name": "registerAndDeployCoinage",
      "outputs": [
        {
          "internalType": "bool",
          "name": "",
          "type": "bool"
        }
      ],
      "stateMutability": "nonpayable",
      "type": "function"
    },
    {
      "inputs": [
        {
          "internalType": "address",
          "name": "layer2",
          "type": "address"
        },
        {
          "internalType": "address",
          "name": "seigManager",
          "type": "address"
        },
        {
          "internalType": "uint256",
          "name": "commissionRate",
          "type": "uint256"
        },
        {
          "internalType": "bool",
          "name": "isCommissionRateNegative",
          "type": "bool"
        },
        {
          "internalType": "string",
          "name": "name",
          "type": "string"
        }
      ],
      "name": "registerAndDeployCoinageAndSetCommissionRate",
      "outputs": [
        {
          "internalType": "bool",
          "name": "",
          "type": "bool"
        }
      ],
      "stateMutability": "nonpayable",
      "type": "function"
    },
    {
      "inputs": [
        {
          "internalType": "address",
          "name": "account",
          "type": "address"
        }
      ],
      "name": "removeAdmin",
      "outputs": [],
      "stateMutability": "nonpayable",
      "type": "function"
    },
    {
      "inputs": [
        {
          "internalType": "address",
          "name": "account",
          "type": "address"
        }
      ],
      "name": "removeMinter",
      "outputs": [],
      "stateMutability": "nonpayable",
      "type": "function"
    },
    {
      "inputs": [
        {
          "internalType": "address",
          "name": "account",
          "type": "address"
        }
      ],
      "name": "removeOperator",
      "outputs": [],
      "stateMutability": "nonpayable",
      "type": "function"
    },
    {
      "inputs": [],
      "name": "renounceMinter",
      "outputs": [],
      "stateMutability": "nonpayable",
      "type": "function"
    },
    {
      "inputs": [],
      "name": "renounceOperator",
      "outputs": [],
      "stateMutability": "nonpayable",
      "type": "function"
    },
    {
      "inputs": [],
      "name": "renounceOwnership",
      "outputs": [],
      "stateMutability": "nonpayable",
      "type": "function"
    },
    {
      "inputs": [
        {
          "internalType": "bytes32",
          "name": "role",
          "type": "bytes32"
        },
        {
          "internalType": "address",
          "name": "account",
          "type": "address"
        }
      ],
      "name": "renounceRole",
      "outputs": [],
      "stateMutability": "nonpayable",
      "type": "function"
    },
    {
      "inputs": [
        {
          "internalType": "address",
          "name": "account",
          "type": "address"
        }
      ],
      "name": "revokeMinter",
      "outputs": [],
      "stateMutability": "nonpayable",
      "type": "function"
    },
    {
      "inputs": [
        {
          "internalType": "address",
          "name": "account",
          "type": "address"
        }
      ],
      "name": "revokeOperator",
      "outputs": [],
      "stateMutability": "nonpayable",
      "type": "function"
    },
    {
      "inputs": [
        {
          "internalType": "bytes32",
          "name": "role",
          "type": "bytes32"
        },
        {
          "internalType": "address",
          "name": "account",
          "type": "address"
        }
      ],
      "name": "revokeRole",
      "outputs": [],
      "stateMutability": "nonpayable",
      "type": "function"
    },
    {
      "inputs": [
        {
          "internalType": "bytes4",
          "name": "",
          "type": "bytes4"
        }
      ],
      "name": "selectorImplementation",
      "outputs": [
        {
          "internalType": "address",
          "name": "",
          "type": "address"
        }
      ],
      "stateMutability": "view",
      "type": "function"
    },
    {
      "inputs": [
        {
          "internalType": "bytes4",
          "name": "interfaceId",
          "type": "bytes4"
        }
      ],
      "name": "supportsInterface",
      "outputs": [
        {
          "internalType": "bool",
          "name": "",
          "type": "bool"
        }
      ],
      "stateMutability": "view",
      "type": "function"
    },
    {
      "inputs": [
        {
          "internalType": "address",
          "name": "newAdmin",
          "type": "address"
        }
      ],
      "name": "transferAdmin",
      "outputs": [],
      "stateMutability": "nonpayable",
      "type": "function"
    },
    {
      "inputs": [
        {
          "internalType": "address",
          "name": "newAdmin",
          "type": "address"
        }
      ],
      "name": "transferOwnership",
      "outputs": [],
      "stateMutability": "nonpayable",
      "type": "function"
    },
    {
      "inputs": [
        {
          "internalType": "address",
          "name": "layer2",
          "type": "address"
        }
      ],
      "name": "unregister",
      "outputs": [
        {
          "internalType": "bool",
          "name": "",
          "type": "bool"
        }
      ],
      "stateMutability": "nonpayable",
      "type": "function"
    }
  ],
  "bytecode": "0x608060405234801561001057600080fd5b50611c42806100206000396000f3fe608060405234801561001057600080fd5b50600436106102ad5760003560e01c8063715018a61161017b578063aa271e1a116100d8578063d53913931161008c578063f2fde38b11610071578063f2fde38b14610633578063f5b541a614610646578063fad8b32a1461066d57600080fd5b8063d5391393146105f9578063d547741f1461062057600080fd5b8063b7ffb179116100bd578063b7ffb17914610594578063b911135f146105bd578063cfbd4885146105e657600080fd5b8063aa271e1a1461056e578063ac8a584a1461058157600080fd5b806391d148541161012f5780639865027511610114578063986502751461054b5780639870d7fe14610553578063a217fddf1461056657600080fd5b806391d14854146104ff578063983b2d561461053857600080fd5b806379405b6f1161016057806379405b6f146104a257806385108604146104b55780638f32d59b146104c857600080fd5b8063715018a61461048757806375829def1461048f57600080fd5b80633092afd511610229578063550d01a3116101dd57806363a8fd89116101c257806363a8fd89146104545780636d70f7ae14610461578063704802751461047457600080fd5b8063550d01a31461040557806361cdc5b81461042857600080fd5b806336568abe1161020e57806336568abe1461039e57806349ced111146103b157806350d2a276146103dc57600080fd5b80633092afd51461037857806332434a2e1461038b57600080fd5b8063248a9ca3116102805780632ab6f8db116102655780632ab6f8db1461034a5780632ec2c246146103525780632f2ff15d1461036557600080fd5b8063248a9ca31461031457806324d7806c1461033757600080fd5b806301ffc9a7146102b25780630d42d497146102da5780631785f53c146102ec5780631eaea72414610301575b600080fd5b6102c56102c036600461176d565b610680565b60405190151581526020015b60405180910390f35b6007545b6040519081526020016102d1565b6102ff6102fa3660046117ac565b610691565b005b6102c561030f36600461186c565b6106cd565b6102de6103223660046118ce565b60009081526005602052604090206001015490565b6102c56103453660046117ac565b610807565b6102ff610847565b6102c56103603660046117ac565b610873565b6102ff6103733660046118e7565b6108e4565b6102ff6103863660046117ac565b61090e565b6102c5610399366004611917565b61095d565b6102ff6103ac3660046118e7565b610a78565b6103c46103bf366004611967565b610b04565b6040516001600160a01b0390911681526020016102d1565b6103c46103ea36600461176d565b6003602052600090815260409020546001600160a01b031681565b6102c56104133660046117ac565b60026020526000908152604090205460ff1681565b6102c56104363660046117ac565b6001600160a01b031660009081526006602052604090205460ff1690565b6000546102c59060ff1681565b6102c561046f3660046117ac565b610b35565b6102ff6104823660046117ac565b610b75565b6102ff610ba5565b6102ff61049d3660046117ac565b610bd5565b6102c56104b03660046119aa565b610cbe565b6102c56104c3366004611a29565b610e0f565b3360009081527f05b8ccbb9d4d8fb16ea74ce3c29a41f1b461fbdaff4714a0d9a8eb05499746bc602052604090205460ff166102c5565b6102c561050d3660046118e7565b60009182526005602090815260408084206001600160a01b0393909316845291905290205460ff1690565b6102ff6105463660046117ac565b610f22565b6102ff610f71565b6102ff6105613660046117ac565b610f9b565b6102de600081565b6102c561057c3660046117ac565b610fea565b6102ff61058f3660046117ac565b61102a565b6103c46105a23660046118ce565b6000908152600860205260409020546001600160a01b031690565b6103c46105cb3660046118ce565b6001602052600090815260409020546001600160a01b031681565b6102ff6105f43660046117ac565b611079565b6102de7ff0887ba65ee2024ea881d91b74c2450ef19e1557f03bed3ea9f16b037cbe2dc981565b6102ff61062e3660046118e7565b6110c4565b6102ff6106413660046117ac565b6110e9565b6102de7f523a704056dcd17bcf83bed8b68c59416dac1119be77755efe3bde0a64e46e0c81565b6102ff61067b3660046117ac565b611117565b600061068b82611166565b92915050565b61069a33610807565b6106bf5760405162461bcd60e51b81526004016106b690611a57565b60405180910390fd5b6106ca600082610a78565b50565b3360009081527fca0a2f641ec05ca23127d994cf03ffc453db616acae0b86cb56bb95304d068546020526040812054849060ff168061077e5750336001600160a01b0316816001600160a01b031663570ca7356040518163ffffffff1660e01b8152600401602060405180830381865afa15801561074f573d6000803e3d6000fd5b505050506040513d601f19601f820116820180604052508101906107739190611a9a565b6001600160a01b0316145b6107d65760405162461bcd60e51b8152602060048201526024808201527f73656e646572206973206e6569746865722061646d696e206e6f72206f70657260448201526330ba37b960e11b60648201526084016106b6565b6107e0858461118b565b6107e957600080fd5b6107f385856112d3565b6107fc57600080fd5b506001949350505050565b6001600160a01b03811660009081527f05b8ccbb9d4d8fb16ea74ce3c29a41f1b461fbdaff4714a0d9a8eb05499746bc602052604081205460ff1661068b565b6108717f523a704056dcd17bcf83bed8b68c59416dac1119be77755efe3bde0a64e46e0c33610a78565b565b600061087e33610807565b61089a5760405162461bcd60e51b81526004016106b690611a57565b6001600160a01b03821660009081526006602052604090205460ff166108bf57600080fd5b506001600160a01b03166000908152600660205260409020805460ff19169055600190565b6000828152600560205260409020600101546108ff8161134a565b6109098383611354565b505050565b61091733610807565b6109335760405162461bcd60e51b81526004016106b690611a57565b6106ca7ff0887ba65ee2024ea881d91b74c2450ef19e1557f03bed3ea9f16b037cbe2dc982610a78565b3360009081527fca0a2f641ec05ca23127d994cf03ffc453db616acae0b86cb56bb95304d068546020526040812054839060ff1680610a0e5750336001600160a01b0316816001600160a01b031663570ca7356040518163ffffffff1660e01b8152600401602060405180830381865afa1580156109df573d6000803e3d6000fd5b505050506040513d601f19601f82011682018060405250810190610a039190611a9a565b6001600160a01b0316145b610a665760405162461bcd60e51b8152602060048201526024808201527f73656e646572206973206e6569746865722061646d696e206e6f72206f70657260448201526330ba37b960e11b60648201526084016106b6565b610a70848461118b565b949350505050565b6001600160a01b0381163314610af65760405162461bcd60e51b815260206004820152602f60248201527f416363657373436f6e74726f6c3a2063616e206f6e6c792072656e6f756e636560448201527f20726f6c657320666f722073656c66000000000000000000000000000000000060648201526084016106b6565b610b0082826113f6565b5050565b6000600982604051610b169190611adb565b908152604051908190036020019020546001600160a01b031692915050565b6001600160a01b03811660009081527f02634a7c777b8129955fe1824eee49ef19dfa96f2f4cb63212492c3d84eb58e6602052604081205460ff1661068b565b610b7e33610807565b610b9a5760405162461bcd60e51b81526004016106b690611a57565b6106ca6000826108e4565b610bae33610807565b610bca5760405162461bcd60e51b81526004016106b690611a57565b610871600033610a78565b610bde33610807565b610bfa5760405162461bcd60e51b81526004016106b690611a57565b6001600160a01b038116610c505760405162461bcd60e51b815260206004820152601860248201527f41636365737369626c653a207a65726f2061646472657373000000000000000060448201526064016106b6565b6001600160a01b0381163303610ca85760405162461bcd60e51b815260206004820152601660248201527f41636365737369626c653a2073616d652061646d696e0000000000000000000060448201526064016106b6565b610cb36000826108e4565b6106ca600033610a78565b3360009081527fca0a2f641ec05ca23127d994cf03ffc453db616acae0b86cb56bb95304d068546020526040812054869060ff1680610d6f5750336001600160a01b0316816001600160a01b031663570ca7356040518163ffffffff1660e01b8152600401602060405180830381865afa158015610d40573d6000803e3d6000fd5b505050506040513d601f19601f82011682018060405250810190610d649190611a9a565b6001600160a01b0316145b610dc75760405162461bcd60e51b8152602060048201526024808201527f73656e646572206973206e6569746865722061646d696e206e6f72206f70657260448201526330ba37b960e11b60648201526084016106b6565b610dd1878461118b565b610dda57600080fd5b610de487876112d3565b610ded57600080fd5b610df987878787611479565b610e0257600080fd5b5060019695505050505050565b3360009081527fca0a2f641ec05ca23127d994cf03ffc453db616acae0b86cb56bb95304d068546020526040812054839060ff1680610ec05750336001600160a01b0316816001600160a01b031663570ca7356040518163ffffffff1660e01b8152600401602060405180830381865afa158015610e91573d6000803e3d6000fd5b505050506040513d601f19601f82011682018060405250810190610eb59190611a9a565b6001600160a01b0316145b610f185760405162461bcd60e51b8152602060048201526024808201527f73656e646572206973206e6569746865722061646d696e206e6f72206f70657260448201526330ba37b960e11b60648201526084016106b6565b610a7084846112d3565b610f2b33610807565b610f475760405162461bcd60e51b81526004016106b690611a57565b6106ca7ff0887ba65ee2024ea881d91b74c2450ef19e1557f03bed3ea9f16b037cbe2dc9826108e4565b6108717ff0887ba65ee2024ea881d91b74c2450ef19e1557f03bed3ea9f16b037cbe2dc933610a78565b610fa433610807565b610fc05760405162461bcd60e51b81526004016106b690611a57565b6106ca7f523a704056dcd17bcf83bed8b68c59416dac1119be77755efe3bde0a64e46e0c826108e4565b6001600160a01b03811660009081527fca0a2f641ec05ca23127d994cf03ffc453db616acae0b86cb56bb95304d06854602052604081205460ff1661068b565b61103333610807565b61104f5760405162461bcd60e51b81526004016106b690611a57565b6106ca7f523a704056dcd17bcf83bed8b68c59416dac1119be77755efe3bde0a64e46e0c82610a78565b61108233610807565b61109e5760405162461bcd60e51b81526004016106b690611a57565b6106ca7ff0887ba65ee2024ea881d91b74c2450ef19e1557f03bed3ea9f16b037cbe2dc9825b6000828152600560205260409020600101546110df8161134a565b61090983836113f6565b6110f233610807565b61110e5760405162461bcd60e51b81526004016106b690611a57565b6106ca81610bd5565b61112033610807565b61113c5760405162461bcd60e51b81526004016106b690611a57565b6106ca7f523a704056dcd17bcf83bed8b68c59416dac1119be77755efe3bde0a64e46e0c826110c4565b60006001600160e01b03198216637965db0b60e01b148061068b575061068b82611501565b6001600160a01b03821660009081526006602052604081205460ff16156111b157600080fd5b826001600160a01b031663882eed2c6040518163ffffffff1660e01b8152600401602060405180830381865afa1580156111ef573d6000803e3d6000fd5b505050506040513d601f19601f820116820180604052508101906112139190611af7565b61121c57600080fd5b6001600160a01b0383166000818152600660209081526040808320805460ff191660011790556007548352600890915290819020805473ffffffffffffffffffffffffffffffffffffffff1916909217909155518390600990611280908590611adb565b908152602001604051809103902060006101000a8154816001600160a01b0302191690836001600160a01b031602179055506001600760008282546112c59190611b2a565b909155506001949350505050565b60405163833a774f60e01b81526001600160a01b0383811660048301526000919083169063833a774f906024016020604051808303816000875af115801561131f573d6000803e3d6000fd5b505050506040513d601f19601f820116820180604052508101906113439190611af7565b9392505050565b6106ca813361153d565b60008281526005602090815260408083206001600160a01b038516845290915290205460ff16610b005760008281526005602090815260408083206001600160a01b03851684529091529020805460ff191660011790556113b23390565b6001600160a01b0316816001600160a01b0316837f2f8788117e7eff1d82e926ec794901d17c78024a50270940304540a733656f0d60405160405180910390a45050565b60008281526005602090815260408083206001600160a01b038516845290915290205460ff1615610b005760008281526005602090815260408083206001600160a01b0385168085529252808320805460ff1916905551339285917ff6391f5c32d9c69d2a47ea670b442974b53935d1edc7fd64eb21e047a839171b9190a45050565b60405163211276b360e11b81526001600160a01b03858116600483015260248201849052821515604483015260009190851690634224ed66906064016020604051808303816000875af11580156114d4573d6000803e3d6000fd5b505050506040513d601f19601f820116820180604052508101906114f89190611af7565b95945050505050565b60006301ffc9a760e01b6001600160e01b03198316148061068b5750506001600160e01b03191660009081526004602052604090205460ff1690565b60008281526005602090815260408083206001600160a01b038516845290915290205460ff16610b0057611570816115b2565b61157b8360206115c4565b60405160200161158c929190611b3d565b60408051601f198184030181529082905262461bcd60e51b82526106b691600401611bbe565b606061068b6001600160a01b03831660145b606060006115d3836002611bf1565b6115de906002611b2a565b67ffffffffffffffff8111156115f6576115f66117c9565b6040519080825280601f01601f191660200182016040528015611620576020820181803683370190505b509050600360fc1b8160008151811061163b5761163b611c08565b60200101906001600160f81b031916908160001a905350600f60fb1b8160018151811061166a5761166a611c08565b60200101906001600160f81b031916908160001a905350600061168e846002611bf1565b611699906001611b2a565b90505b600181111561171e577f303132333435363738396162636465660000000000000000000000000000000085600f16601081106116da576116da611c08565b1a60f81b8282815181106116f0576116f0611c08565b60200101906001600160f81b031916908160001a90535060049490941c9361171781611c1e565b905061169c565b5083156113435760405162461bcd60e51b815260206004820181905260248201527f537472696e67733a20686578206c656e67746820696e73756666696369656e7460448201526064016106b6565b60006020828403121561177f57600080fd5b81356001600160e01b03198116811461134357600080fd5b6001600160a01b03811681146106ca57600080fd5b6000602082840312156117be57600080fd5b813561134381611797565b634e487b7160e01b600052604160045260246000fd5b600082601f8301126117f057600080fd5b813567ffffffffffffffff8082111561180b5761180b6117c9565b604051601f8301601f19908116603f01168101908282118183101715611833576118336117c9565b8160405283815286602085880101111561184c57600080fd5b836020870160208301376000602085830101528094505050505092915050565b60008060006060848603121561188157600080fd5b833561188c81611797565b9250602084013561189c81611797565b9150604084013567ffffffffffffffff8111156118b857600080fd5b6118c4868287016117df565b9150509250925092565b6000602082840312156118e057600080fd5b5035919050565b600080604083850312156118fa57600080fd5b82359150602083013561190c81611797565b809150509250929050565b6000806040838503121561192a57600080fd5b823561193581611797565b9150602083013567ffffffffffffffff81111561195157600080fd5b61195d858286016117df565b9150509250929050565b60006020828403121561197957600080fd5b813567ffffffffffffffff81111561199057600080fd5b610a70848285016117df565b80151581146106ca57600080fd5b600080600080600060a086880312156119c257600080fd5b85356119cd81611797565b945060208601356119dd81611797565b93506040860135925060608601356119f48161199c565b9150608086013567ffffffffffffffff811115611a1057600080fd5b611a1c888289016117df565b9150509295509295909350565b60008060408385031215611a3c57600080fd5b8235611a4781611797565b9150602083013561190c81611797565b60208082526023908201527f41757468436f6e74726f6c3a2043616c6c6572206973206e6f7420616e20616460408201526236b4b760e91b606082015260800190565b600060208284031215611aac57600080fd5b815161134381611797565b60005b83811015611ad2578181015183820152602001611aba565b50506000910152565b60008251611aed818460208701611ab7565b9190910192915050565b600060208284031215611b0957600080fd5b81516113438161199c565b634e487b7160e01b600052601160045260246000fd5b8082018082111561068b5761068b611b14565b7f416363657373436f6e74726f6c3a206163636f756e7420000000000000000000815260008351611b75816017850160208801611ab7565b7f206973206d697373696e6720726f6c65200000000000000000000000000000006017918401918201528351611bb2816028840160208801611ab7565b01602801949350505050565b6020815260008251806020840152611bdd816040850160208701611ab7565b601f01601f19169190910160400192915050565b808202811582820484141761068b5761068b611b14565b634e487b7160e01b600052603260045260246000fd5b600081611c2d57611c2d611b14565b50600019019056fea164736f6c6343000814000a",
  "linkReferences": {},
  "deployedLinkReferences": {}
}